:100000000C9474000C9493000C9493000C949A003C
:100010000C9493000C9493000C9493000C94930014
:100020000C9493000C9493000C9493000C94930004
:100030000C9493000C9493000C9493000C949300F4
:100040000C9493000C9493000C9493000C949300E4
:100050000C9493000C9493000C9493000C949300D4
:100060000C9493000C9493000C9493000C948802CD
:100070000C9493000C9493000C9493000C949300B4
:100080000C9493000C9493000C9493000C949300A4
:100090000C9493000C9493000C9493000C94930094
:1000A0000C9493000C9493000C9493000C94930084
:1000B0000C9493000C9493000C9493000C94930074
:1000C0000C9493000C9493000C9493000C94930064
:1000D0000C9493000C9493000C9493000C94930054
:1000E0000C9493000C94930011241FBECFEFCDBF4E
:1000F000DFE7DEBF10E4A0E0B0E4E4E0FCE100E014
:100100000BBF02C007900D92A83DB107D9F721E4BB
:10011000A8EDB0E401C01D92A632B207E1F70E943B
:10012000E2000C94000E0C9400000E9419030E943F
:10013000020208951F920F920FB60F9211240BB670
:100140000F922F933F934F935F936F937F938F9370
:100150009F93AF93BF93EF93FF930E94420282E07D
:1001600080934301FF91EF91BF91AF919F918F9148
:100170007F916F915F914F913F912F910F900BBEA7
:100180000F900FBE0F901F90189580E090E00E9496
:10019000790280788093D84081E090E00E947902D3
:1001A00080788093D84082E090E00E947902807845
:1001B0008093D84083E090E00E9479028078809319
:1001C000D84008950E9495000E940C028091DB4067
:1001D0008130D1F71092DB400E94C500F5CF089521
:1001E000CF93C82F0E9446038823E1F38C2F0E94EF
:1001F00056030E944C038111FCCFCF9108950F93B9
:100200001F93CF93DF9300D0CDB7DEB78091D94055
:100210008F7051F00EC0F801E050F04C80810E94C8
:10022000F0000F5F1F4F02C000E010E00331110526
:1002300090F385E50E94F0008091D9400E94F00083
:1002400019821A824EC089819A810E945302192F05
:100250000E94F000812F0E94F00089819A810E9403
:100260006002192F0E94F000812F0E94F000898106
:100270009A810E9453028C0189819A810E946002B6
:10028000081B190B802F0E94F000812F0E94F000A4
:1002900089819A810E946C02192F0E94F000812F9F
:1002A0000E94F00089819A810E947902882324F4B7
:1002B00081E00E94F00003C080E00E94F00089818C
:1002C0009A81FC01EE0FFF1F8E0F9F1FFC01E55E60
:1002D000FF4B80810E94F00089819A810196898379
:1002E0009A8389819A81049708F4ADCF8091DA408E
:1002F0000E94F0008091D94091E0980F9093D940EE
:100300000E94F0008AEA0E94F0000F900F90DF91A7
:10031000CF911F910F910895E4E1F4E08081877FF0
:1003200080838081887F84608083E7E7F4E0808138
:10033000877F80838081887F84608083E6E1F4E02A
:100340008081877F80838081887F84608083E1E7EC
:10035000F4E08081877F80838081887F84608083D0
:10036000E2E7F4E08081877F80838081887F8460FA
:100370008083089581E08093DC400895CF93DF93DC
:1003800081E390E40E94A80B82E091E40E945F0C5C
:10039000C0E0D0E00BC0BE0181E390E40E94D90C24
:1003A000BE0181E390E40E94F80C2196C430D1058F
:1003B00090F3C0E0D0E00FC0AE01440F551F440FD2
:1003C000551F4C0F5D1F42515F4B6C2F83E190E432
:1003D0000E94D1032196C430D10570F380E0DF91F3
:1003E000CF9108958F5F8093DA400E94FF000895B7
:1003F0009091410192FDFCCF90E080934A0190934F
:100400004B01089580E20E94F8010E948C010E9435
:10041000BE010E94EF0008958091DD40813051F4CB
:100420006AEB71E081E390E40E94690C811102C0E3
:100430001092DD408091DC40813019F51092DC4053
:100440000E94260981110AC083E190E40E94F00312
:10045000882339F081E00E94F20103C080E00E940D
:10046000F201E0911340F09114408081882324F43C
:1004700081E08093DD4003C081E08093DB400E94F7
:10048000FF0008958091ED408F5F8093ED408431AF
:1004900048F01092ED4081E08093DD4084E190E0EF
:1004A0000E94C6030895FC01EE0FFF1FEE0FFF1F11
:1004B0008E0F9F1FFC01E251FF4B818192810895B5
:1004C000FC01EE0FFF1FE80FF91FEE0FFF1FE65FA5
:1004D000FE4B848195810895FC01EE0FFF1FEE0F06
:1004E000FF1F8E0F9F1FFC01E251FF4B8381948100
:1004F0000895E0911740F09118409C01220F331F9E
:10050000820F931F880F991FE80FF91F80810895AC
:100510001F920F920FB60F9211240BB60F922F93CA
:100520003F934F935F936F937F938F939F93AF937B
:10053000BF93EF93FF930E947F0DFF91EF91BF91C7
:10054000AF919F918F917F916F915F914F913F916B
:100550002F910F900BBE0F900FBE0F901F9018950C
:100560001092890080E0089544E268ED88E690E00A
:100570000E94280380E00895789480E0089580E048
:1005800008C0E82FF0E0E05FFB4F90819860908317
:100590008F5F8830B0F380E008C0E82FF0E0E05DC6
:1005A000FB4F9081986090838F5F8830B0F380E03C
:1005B00008C0E82FF0E0E05BFB4F908198609083EB
:1005C0008F5F8830B0F380E008C0E82FF0E0E0599A
:1005D000FB4F9081986090838F5F8830B0F380E00C
:1005E00008C0E82FF0E0E057FB4F908198609083BF
:1005F0008F5F8830B0F380E008C0E82FF0E0E0556E
:10060000FB4F9081986090838F5F8830B0F308959E
:1006100088B18D7F88B9E1E5F4E08081877F8083B0
:1006200089B18E7F89B988B1816088B90E943C0305
:1006300008950E94BF020E94B4020E9408030E9413
:100640003A030E94BC020E942D030E94B00208954A
:100650001BBEFC0164BF408308958091410181115C
:10066000FCCFE0E4F1E081E88083178282E08283BE
:1006700080E0089580E00895E0E2F8E084EC99E0FD
:100680008087918780EC868380E00895809124089C
:1006900085FB882780F908958091240882958695A6
:1006A0008695837091E08927817008959091240840
:1006B00095FFFCCF809322080895CF92DF92FF929E
:1006C0000F931F93CF93DF93EC01AE81BF81EB01BA
:1006D000CC0FDD1FC60FD71FCA0FDB1FFA80FC012E
:1006E00044815581E6E0E69F9001E79F300D11249B
:1006F0008A01020F131FF80122813381F901218140
:100700003281F80104811581201B310BE8812E1BF9
:100710003109EC01EA81FB8100811181FA0140E09D
:1007200050E04017510739F146175707F9F0129674
:100730008C911297F8121AC0808185588230E8F0A7
:10074000C480D58082819381EC0189819A81C81609
:10075000D90660F48C199D09CC91D0E0C817D9074F
:1007600028F48C1B9D0B2817390738F04F5F5F4F1B
:1007700013963696D6CF80E001C081E0DF91CF910D
:100780001F910F91FF90DF90CF9008952091DE4050
:100790003091DF40820F931F8093DE409093DF40C3
:1007A00008950097D9F041155105C1F026E0629FE8
:1007B000B0011124DC011496ED91FC911597E60F20
:1007C000F71F21E0208314968D919C911597FC01D1
:1007D000E60FF71F4283538380E008958BE008956E
:1007E0002F923F924F925F926F927F928F929F9241
:1007F000AF92BF92CF92DF92EF92FF920F931F932F
:10080000CF93DF93009709F47DC3EC01A12CB12CA9
:10081000812C912C212CD12C33E0C32E45E8642E61
:1008200056E8752E67E0362E72E0472EE8E05E2E21
:10083000EA81FB81808191818816990608F0A5C123
:100840007501EE0CFF1C0C811D810E0D1F1DD801C2
:100850008C91843009F4A2C038F4823001F108F0A0
:1008600049C0813059F08AC1853809F4C2C0863840
:1008700009F4F6C0873009F081C137C1D80112965A
:10088000ED91FC91139780818E7109F069C14C92B2
:100890008C819D81FC01EE0DFF1D518261C1F8012B
:1008A0002181222329F10280F381E02D253020F0DF
:1008B00081819281D8010EC0D80114968D919C91AE
:1008C0001597418152818417950769F04817590798
:1008D00030F4019714968D939C93159704C001965C
:1008E000F801848395832150D80111962C9338C147
:1008F000F80131C1D80114962D913C9115971296AB
:100900008D919C911397DC0111964D915C911297FA
:100910002417350709F432C18E819F81421753078E
:10092000E0F4241B350BDC01AA0DBB1D8C9190E07B
:10093000058002C0959587950A94E2F799272817B4
:10094000390708F41BC18481882309F417C1F80111
:100950003082EA81FB8124811AC0FC01EA0DFB1D73
:10096000421B530B808190E04817590708F406C1D9
:100970008281882331F0B401CE010E945D03811190
:10098000FDC0E4E0D801EC93EA81FB8122818C81F7
:100990009D81FC01EE0DFF1D2183E2C0D80114965C
:1009A0002D913C9115971296ED91FC9113978181B1
:1009B00092818217930708F4D7C0EE81FF81EA0D78
:1009C000FB1D821B930B208130E02817390708F0AC
:1009D000AFC08281882331F0B401CE010E945D0353
:1009E0008111CCC0F8018181882309F467C081504E
:1009F000B6C0A881B981808513968C93EC81FD8166
:100A0000EE0DFF1D44815581A281B38111968D9118
:100A10009C91129784179507C0F0AE81BF81AA0DF3
:100A2000BB1D6C91262F30E011967C917F5F02C038
:100A3000359527957A95E2F7841B950B621B262F37
:100A400030E02817390708F497C07082EA81FB81EB
:100A500022818C819D81FC01EE0DFF1D218342C00E
:100A6000D80114966D917C9115971296ED91FC9199
:100A70001397218132812617370758F411968C91EC
:100A80001197811102C0CC9277C08150F801818307
:100A900073C0EE81FF81EA0DFB1D8081482F50E07D
:100AA00091819F5F02C0559547959A95E2F7261B65
:100AB000370B841B90E08217930760F4D8016C9287
:100AC000EA81FB8123818C819D81FC01EE0DFF1D5C
:100AD000218352C0F8018181811102C0C0824CC0C3
:100AE00081508183222423943BC0D80114962D91F8
:100AF0003C91159712968D919C911397DC0111965C
:100B00008D919C9112978217930768F5281B390BDA
:100B1000AE81BF81AA0DBB1D8C9190E0058002C003
:100B2000959587950A94E2F799272817390718F4BD
:100B3000F801C0821AC0D80111968C9111978111C9
:100B40000CC081E08C938C819D81FC01EE0DFF1D1A
:100B50000280F381E02DC08211C08150F8018183B1
:100B6000DD24D3940BC0D801CC928C819D81FC01F3
:100B7000EE0DFF1D118202C022242394BFEF8B1AB9
:100B80009B0AE3E0AE0EB11C53CEE881F98180816F
:100B900087FF23C040E050E020E030E0EA81FB81A5
:100BA000808191812817390798F4EC81FD81E40F49
:100BB000F51FA281B3818C9180FD05C09081977F44
:100BC00011F081608C932F5F3F4F4A5F5F4FE6CFFC
:100BD000E881F98180818F778083D11007C0E88117
:100BE000F98121106FC080818E7F6EC0EA81FB8108
:100BF00081858823A1F3E881F981808180688083E1
:100C0000EA81FB818185813051F740E050E020E0AE
:100C100030E096E0D92EEA81FB8160817181261750
:100C20003707E8F60C811D81FA01EE0FFF1FE00F78
:100C3000F11F8081982F977FA1F1853811F08330C3
:100C4000B1F5EE80FF80D701A40FB51F1296BC90BE
:100C5000BB2039F180E090E0C12C86179707F8F4AB
:100C600028173907D1F0D89ED001D99EB00D112494
:100C7000A00FB11FAC91A43011F0A63871F4DC01C3
:100C8000AA0FBB1FA80FB91FAE0DBF1D1296AC91C6
:100C9000BA1203C0CB01CC24C3940196DECFC1109D
:100CA00006C00280F381E02D80818E7F05C0028026
:100CB000F381E02D8081816080832F5F3F4F4D5F06
:100CC0005F4FA9CF8081816080838091DE409091C9
:100CD000DF40E881F98121813281A90148535F4FCA
:100CE0004817590738F4821B930BAA24A394A3E056
:100CF000BA2E44C08217930710F080E004C1821B13
:100D0000930B0197893C9105C0F3EFCF885C910963
:100D1000E881F9812181328128533F4F2183328339
:100D20002381211196C02481222311F02150248394
:100D3000E881F9812581222311F0215025838A80C1
:100D40009B80D40116962C91169721111BC08A8086
:100D50009B80F4012781211148C0EA81FB81238116
:100D6000222361F020E030E0A0E0B0E0EA81FB81E6
:100D700040815181A417B50708F46EC0893C9105E4
:100D800028F6BBCF08811981F80124812111DFCF1A
:100D9000ED90FC9060E070E040E050E04E155F05A3
:100DA000F1F0EC81FD81E60FF71F2081233011F077
:100DB000283081F424813581C280D380D6011196F8
:100DC000CD90DC9012972C153D0520F42F5F3F4FFE
:100DD000248335834F5F5F4F6A5F7F4FDFCFF4011E
:100DE0002681D80114962C93B2CF08811981D8019D
:100DF00015962C912111B1CFE080F18060E070E078
:100E000040E050E04E155F05F1F0EC81FD81E60F0A
:100E1000F71F2081233011F0283081F4248135819F
:100E2000C280D380D6011196CD90DC901297C21665
:100E3000D30620F421503109248335834F5F5F4F5F
:100E40006A5F7F4FDFCFF4012781D80115962C937D
:100E500084CF2150238381CFA901440F551FEC81FA
:100E6000FD81E40FF51F6081653809F047C061819D
:100E7000662319F06150618341C0A0826C817D813D
:100E8000FB01E40FF51F0280F381E02DB082EE81BB
:100E9000FF81E20FF31FD280DD2081F140E050E0BE
:100EA00000E010E0EA81FB8160817181061717077D
:100EB00028F5EE81FF81E40FF51F6281D61219C07B
:100EC000BA01660F771FEC81FD814F01860E971ED8
:100ED000F401E280F380F701F080F0FE0AC0F40133
:100EE000A082EC81FD81E60FF71F0280F381E02DE7
:100EF000B0820F5F1F4F4D5F5F4FD4CF11962D5FB4
:100F00003F4F34CF8BE0DF91CF911F910F91FF9036
:100F1000EF90DF90CF90BF90AF909F908F907F9099
:100F20006F905F904F903F902F900895A091224135
:100F3000B091234125E0AC01249FC001259F900D75
:100F400011241496ED91FC911597E80FF91F8181FA
:100F500092818617970781F18617970718F4681B07
:100F6000790B04C09C01261B370BB901ED91FC9154
:100F70008281803411F47695679565387105D0F4D7
:100F800066307105C8F0E381E073F0E083E0F69528
:100F9000E7958A95E1F7E357FF4B80819181689F40
:100FA0009001699F300D789F300D112481E0232B33
:100FB00021F402C081E0089580E008958091E54029
:100FC0009091E640A0912241B0912341ED91FC9196
:100FD00011974081518125E0289FB001299F700D14
:100FE000112420E030E084179507A8F41496ED91C1
:100FF000FC911597E20FF31FE60FF71FE0812B5FBF
:101000003F4FE0FD02C00196EECF8093E540909304
:10101000E64080E008951092E5401092E64081E0BD
:101020000895AF92BF92CF92DF92EF92FF920F930B
:101030001F93CF93DF937C01E0912241F0912341F4
:1010400084E18E9DE0018F9DD00D1124A281B3819A
:10105000AC0FBD1F18962C91189719963C911997B3
:101060001A964C911A971B965C911B971C966C9143
:101070001C971D967C911D971E968C911E971F960E
:101080009C912093F00708E00E94D80D2093F1076F
:101090000E94D80D2093F2070E94D80D2093F307E9
:1010A0000E94D80D2093F4070E94D80D2093F507D5
:1010B0001092E007A081B18112968C91803809F4DA
:1010C0004FC0A281B381AC0FBD1FCC9011963C9153
:1010D000119712964C91129713965C911397149650
:1010E0006C91149715967C91159716968C9116977E
:1010F00017969C91C092E8072C2D0E94D80DD22EF5
:101100002093E9070E94D80D122F2093EA070E942E
:10111000D80DA22E2093EB070E94D80DB22E20935B
:10112000EC070E94D80D2093ED0780819181DC01AE
:1011300012968C91813821F481E08093E00710C0F1
:10114000823871F41092E007C092F807D092F90744
:101150001093FA07A092FB07B092FC072093FD07BB
:1011600025E02E9DC0012F9D900D1124A481B581F5
:10117000A80FB91F13962D913C911497A901537094
:101180004093E4075093E50737FD03C01092CA0768
:1011900003C021E02093CA07A481B581A80FB91F1D
:1011A0002C9121FF02C025E02C9324813581D901A7
:1011B000A80FB91F8C918C7169F4A281B381AC0F17
:1011C000BD1F5296AC91A295AF70B0E0AB56BF4B2D
:1011D0008C9101C08FE18093E607A281B381AC0FAF
:1011E000BD1F50968C918B3710F48C5F01C08FE738
:1011F0008093C407A281B381AC0FBD1F53968C911D
:101200008093C707A281B381AC0FBD1F51968C910B
:1012100082958F708093C90782819381C80FD91FEF
:1012200089898F7080688093C20781E88093C007A6
:1012300081E08093D007DF91CF911F910F91FF90B4
:10124000EF90DF90CF90BF90AF9008952F923F9294
:101250004F925F926F927F928F929F92AF92BF92C6
:10126000CF92DF92EF92FF920F931F93CF93DF9372
:10127000CDB7DEB72797CDBFDEBF8091E44088238E
:1012800009F446C20091224110912341209124414A
:10129000309125412A833B83C12CD12CA12CB12C28
:1012A000212C312C198244244A94552453947724B8
:1012B0007394D8010D90BC91A02DAE83BF838D9106
:1012C0009C912816390608F01FC2AA81BB814D9156
:1012D0005D91AA83BB83F801E480F580EA0CFB1CD6
:1012E000D7012C91822F8C7190E0969587959695D9
:1012F00087958230910509F4A0C128F4009759F030
:10130000019701F1F7C18330910509F459C10497A0
:1013100009F4E1C0EFC10280F381E02DEC0DFD1D69
:1013200092899F708389981710F4891B01C080E00F
:101330009A0102C0369527958A95E2F7F701218335
:101340003283D8C182819381FC01EC0DFD1D4A01DD
:10135000038802C0969487940A94E2F7D701119605
:101360008D929C92129713968D919C911497692F50
:10137000661F6627661F8114B2E09B0630F03FEFC0
:10138000831A31E0930A41E005C0A20148195909C6
:101390004A0140E096948794AE81BF8112963C91B9
:1013A000303429F0442309F4B6C1462F06C097FF14
:1013B00004C031E0411130E0432FBAE08B169104B4
:1013C00008F03FC026FD3AC027FD94C1AE81BF8121
:1013D00013968C918370833059F4BFE7B08BD8019A
:1013E0001496ED91FC911597EA0DFB1DB1E10DC02E
:1013F000823069F48189807F818BD8011496ED91C8
:10140000FC911597EA0DFB1DB9E0B08373C18130E3
:10141000A9F481898F70818BD8011296ED91FC918E
:101420001397EC0DFD1D81898067818B1496ED91DA
:10143000FC911597EA0DFB1DBDE0E7CFF701708227
:1014400059C19C0133702F3FF3E03F0731F4E1E8CD
:10145000D701EC938FEF93E00BC02115310559F4C0
:1014600097FF25C0E1E8D701EC9380E090E061E0D0
:10147000FEE0F9831FC0C90141110FC0019621E0B0
:10148000821A910831E083169104A1F08F3F43E066
:101490009407A1F70FC0009769F00197AC01421BB8
:1014A000530B480D591D41305105A9F703C080EF7A
:1014B00090E061E0D8011496ED91FC911597EA0D4A
:1014C000FB1D70E07727669577956627862B972B0F
:1014D000838394830FC1F801828093808C0C9D1CC0
:1014E000FA01D40153960C90539702C0F695E795F4
:1014F0000A94E2F7EC83FD8350966C90FFE76F123D
:101500000FC0EC81FD81D7011196ED93FC931297EA
:10151000D40150968C9150978F7B50968C9342C0FB
:10152000F12C262D30E0C9010F2C02C0969587952D
:101530000A94E2F780FF03C08F2DF12C01C087E0F1
:101540008F5F873010F4F82EEECF6C817D81C10162
:101550000E949607882351F081E090E00F2C01C093
:10156000880F0A94EAF78629F401808BD801FF20BE
:1015700091F01296ED91FC911397EC0DFD1DFA94EC
:1015800081E090E001C0880FFA94EAF78095908995
:101590008923808B07C01496ED91FC911597EA0D75
:1015A000FB1D7082D8011496ED91FC911597EA0D00
:1015B000FB1D8081813009F09DC02C813D8183C05D
:1015C0000280F381E02DEC0DFD1D9A01038802C01D
:1015D000369527950A94E2F72C833D83918892945F
:1015E0002FE0922237E0931691F06C817D81C1014A
:1015F0000E949607811104C09394D7017C9209C080
:10160000911003C0F701708204C09A9402C096E062
:10161000992ED8011296ED91FC911397EC0DFD1DBA
:1016200081898F70818B1296ED91FC911397EC0D4F
:10163000FD1D929480EF982236C00280F381E02D48
:10164000EC0DFD1D9A01038802C0369527950A947A
:10165000E2F72C833D8381898F70982E91F0B90138
:10166000C1010E949607811104C09A94D7017C920F
:101670000AC0B7E09B1203C0F701708204C09394C4
:1016800002C099249394D8011296ED91FC9113977E
:10169000EC0DFD1D8189807F818B1296ED91FC916F
:1016A0001397EC0DFD1D8189982A918A1496ED916E
:1016B000FC911597EA0DFB1D2C813D81218332831E
:1016C00080818130B9F4211542E0340728F02F5F82
:1016D00031402C833D8307C0C201AC81BD818A1B90
:1016E0009B0B8C839D832C813D812B30310510F029
:1016F00035E430834FEF241A340A55E0A50EB11CAF
:1017000084E1C80ED11CD5CD82E08093E44009C0AD
:10171000B3E0B98306C0492F4095441F4427441FB6
:101720004CCE89812796CDBFDEBFDF91CF911F912F
:101730000F91FF90EF90DF90CF90BF90AF909F9070
:101740008F907F906F905F904F903F902F90089573
:101750005F926F927F928F929F92AF92BF92CF9241
:10176000DF92EF92FF920F931F93CF93DF93009737
:1017700009F492C0DC01ED91FC916081718140E03F
:1017800050E020E030E0B0E010E0F12CE12C912CB2
:10179000812C712C612C2617370751F1EC01EA815D
:1017A000FB81E40FF51FA080A085AA2AB180A18546
:1017B000BA2AC280A285CA2AD380A385DA2AD48114
:1017C000A485DA2BC581A585CA2B5680A685A529B7
:1017D0005780E785E529BA291B29FC28ED289D2A91
:1017E0008C2A7A2A6E2A2F5F3F4F4C5E5F4FD3CFF1
:1017F0002B2F312F4F2D5E2D692D782D872D962D76
:10180000A0E00E94F40D09F449C081E08093E44017
:1018100028EAC22E20E4D22EC0E0D0E0AA24A3946D
:10182000B12C4CE0542E2B2F312F4F2D5E2D692DD6
:10183000782D872D962D0C2F0E94D80D217030E029
:1018400040E050E060E070E080E090E0A0E00E94C6
:10185000F40DC9F0F6018081E82FE295E695E77076
:10186000F0E0EE0FFF1FE656FF4B0190F081E02DF8
:101870008F71950102C0220F331F8A95E2F72283F0
:1018800026835386258721963FEFC31AD30AC03398
:10189000D10549F680E003C08BE001C082E0DF9112
:1018A000CF911F910F91FF90EF90DF90CF90BF905D
:1018B000AF909F908F907F906F905F90089500976A
:1018C00031F0809324419093254180E008958BE08E
:1018D00008956115710561F1009751F12091E4407F
:1018E000222341F1243041F18093224190932341FE
:1018F0006093E2407093E340DC01ED91FC91228122
:10190000203419F41092C10707C0203811F0213893
:1019100031F421E02093C1071092CB0711C0223887
:1019200069F421E02093C10729E02093CB0708C088
:101930008BE0089583E0089581E0089582E00895A2
:101940001092C007DC01ED91FC918481928190346A
:1019500051F41092C507803110F4806201C08FE20B
:101960008093C30708C090E29093C3078F3008F0BC
:101970008FE08093C50781E08093D3078093D207DF
:1019800080938C401092E5401092E6400E94DE0762
:1019900081110BC084E08093E4408091E5409091F8
:1019A000E6400E94110880E0089582E08093E440C0
:1019B00008950097C9F0DC01ED91FC911197208109
:1019C00031812617370790F045E0469F9001479FE9
:1019D000300D11241496ED91FC911597E20FF31F31
:1019E00081E0808380E008958BE0089582E008958F
:1019F000FC01892BD1F1A081B1818D919C9111972E
:101A000086179707A0F112969C910480F581E02D2E
:101A1000903459F485E0869FD001879FB00D112442
:101A2000AE0FBF1F80EA90E00DC09058933080F455
:101A300085E0869FD001879FB00D1124AE0FBF1F98
:101A400080EF90E013968D939C93149780E001C0F3
:101A500082E095E0969F9001979F300D1124E20F50
:101A6000F31F90819260908308958BE0089582E047
:101A700008952091DA073091DB076091E54070917D
:101A8000E640CB01880F991FE0912441F091254158
:101A9000E80FF91F20833183A0912241B0912341A7
:101AA00044E1469FC001479F900D11241296ED918D
:101AB000FC911397E80FF91F92899F7083899817FB
:101AC00010F4891B01C080E095E0969FA001979FCC
:101AD000500D11241496ED91FC911597E40FF51F0C
:101AE00002C0369527958A95E2F72183328382E0FA
:101AF0008093E440E091E040F091E140099410923D
:101B0000C00780918C40813009F04EC04091DA07C7
:101B10005091DB078091E5409091E6409C01220FB7
:101B2000331FE0912441F0912541E20FF31F4083E0
:101B3000518301968093E5409093E6400E94DE0732
:101B4000811109C084E08093E4408091E540909148
:101B5000E6400C9411081092E8071092E9071092E1
:101B6000EA071092EB071092EC071092ED07109223
:101B7000F0071092F1071092F2071092F3071092FB
:101B8000F4071092F5071092F8071092F9071092D7
:101B9000FA071092FB071092FC071092FD07E091E4
:101BA000E240F091E34009940C94390D97FB10F852
:101BB000169400080F93083098F00850232F342F04
:101BC000452F562F672F782F892F902DF4CF05940E
:101BD0009795879577956795579547953795279565
:101BE0000A95AAF70F9108950024A7FD00942A17DB
:101BF0003005400550056005700580059005089585
:041C0000F894FFCF86
:101C04005FB400864A03EB00000000000000AA5500
:101C1400016EA0E74027400A411B40140100140153
:101C2400001401001401000400040005001405144C
:101C34000187403740EE404000860000000000105D
:101C4400000000000000000005020450000600002F
:101C540000000000008000000000000005020410E5
:101C640000860000000000400000000000000000AA
:101C7400050204500084000000000000000200007F
:101C84000000000005020404008130000107001375
:101C940000350090001F0F070301000420044004D6
:101CA40060048004A004C0040001020304050607C4
:101CB40020212223242526276061626364656667E8
:101CC4008081828384858687A0A1A2A3A4A5A6A7D8
:081CD400C0C1C2C3C4C5C6C7EC
:00000001FF
