S01700004156523132382D726177626C696E6B2E7372656302
S11300000C9474000C947E000C947E000C947E007E
S11300100C947E000C947E000C947E000C947E0064
S11300200C947E000C947E000C947E000C947E0054
S11300300C947E000C947E000C947E000C947E0044
S11300400C947E000C947E000C947E000C947E0034
S11300500C947E000C947E000C947E000C947E0024
S11300600C947E000C947E000C947E000C947E0014
S11300700C947E000C947E000C947E000C947E0004
S11300800C947E000C947E000C947E000C947E00F4
S11300900C947E000C947E000C947E000C947E00E4
S11300A00C947E000C947E000C947E000C947E00D4
S11300B00C947E000C947E000C947E000C947E00C4
S11300C00C947E000C947E000C947E000C947E00B4
S11300D00C947E000C947E000C947E000C947E00A4
S11300E00C947E000C947E0011241FBECFEFCDBF74
S11300F0DFE7DEBF0E9480000C94A8000C9400008F
S1130100E0E0F4E080E280838583E0E4F4E088E0EA
S113011080838583A0E0B4E090E215969C931597C4
S113012086832FE73AE146E0215030404040E1F732
S113013000C0000016969C93169785832FE73AE13A
S113014046E0215030404040E1F700C00000E5CFD8
S1070150F894FFCF4D
S9030000FC
